{
  "_format": "hh-sol-artifact-1",
  "contractName": "GrowthOwnership",
  "sourceName": "contracts/GrowthOwnership.sol",
  "abi": [
    {
      "anonymous": false,
      "inputs": [
        {
          "indexed": true,
          "internalType": "address",
          "name": "owner",
          "type": "address"
        },
        {
          "indexed": false,
          "internalType": "string",
          "name": "goal",
          "type": "string"
        },
        {
          "indexed": false,
          "internalType": "uint256",
          "name": "timestamp",
          "type": "uint256"
        }
      ],
      "name": "GoalAdded",
      "type": "event"
    },
    {
      "inputs": [
        {
          "internalType": "string",
          "name": "goal",
          "type": "string"
        }
      ],
      "name": "addGoal",
      "outputs": [],
      "stateMutability": "nonpayable",
      "type": "function"
    },
    {
      "inputs": [],
      "name": "getAllGoals",
      "outputs": [
        {
          "components": [
            {
              "internalType": "string",
              "name": "goal",
              "type": "string"
            },
            {
              "internalType": "address",
              "name": "owner",
              "type": "address"
            },
            {
              "internalType": "uint256",
              "name": "timestamp",
              "type": "uint256"
            }
          ],
          "internalType": "struct GrowthOwnership.GoalRecord[]",
          "name": "",
          "type": "tuple[]"
        }
      ],
      "stateMutability": "view",
      "type": "function"
    },
    {
      "inputs": [
        {
          "internalType": "uint256",
          "name": "",
          "type": "uint256"
        }
      ],
      "name": "records",
      "outputs": [
        {
          "internalType": "string",
          "name": "goal",
          "type": "string"
        },
        {
          "internalType": "address",
          "name": "owner",
          "type": "address"
        },
        {
          "internalType": "uint256",
          "name": "timestamp",
          "type": "uint256"
        }
      ],
      "stateMutability": "view",
      "type": "function"
    }
  ],
  "bytecode": "0x608060405234801561001057600080fd5b50610bf0806100206000396000f3fe608060405234801561001057600080fd5b50600436106100415760003560e01c8063344610671461004657806342e35f6314610078578063c75bc9b414610094575b600080fd5b610060600480360381019061005b9190610447565b6100b2565b60405161006f93929190610554565b60405180910390f35b610092600480360381019061008d91906106c7565b610194565b005b61009c6102ac565b6040516100a9919061088a565b60405180910390f35b600081815481106100c257600080fd5b90600052602060002090600302016000915090508060000180546100e5906108db565b80601f0160208091040260200160405190810160405280929190818152602001828054610111906108db565b801561015e5780601f106101335761010080835404028352916020019161015e565b820191906000526020600020905b81548152906001019060200180831161014157829003601f168201915b5050505050908060010160009054906101000a900473ffffffffffffffffffffffffffffffffffffffff16908060020154905083565b600060405180606001604052808381526020013373ffffffffffffffffffffffffffffffffffffffff16815260200142815250908060018154018082558091505060019003906000526020600020906003020160009091909190915060008201518160000190816102059190610ab8565b5060208201518160010160006101000a81548173ffffffffffffffffffffffffffffffffffffffff021916908373ffffffffffffffffffffffffffffffffffffffff1602179055506040820151816002015550503373ffffffffffffffffffffffffffffffffffffffff167facb7751a616003f2e34d801fe04a4c32cb45698565205f480b374b4988853e2682426040516102a1929190610b8a565b60405180910390a250565b60606000805480602002602001604051908101604052809291908181526020016000905b828210156103f45783829060005260206000209060030201604051806060016040529081600082018054610303906108db565b80601f016020809104026020016040519081016040528092919081815260200182805461032f906108db565b801561037c5780601f106103515761010080835404028352916020019161037c565b820191906000526020600020905b81548152906001019060200180831161035f57829003601f168201915b505050505081526020016001820160009054906101000a900473ffffffffffffffffffffffffffffffffffffffff1673ffffffffffffffffffffffffffffffffffffffff1673ffffffffffffffffffffffffffffffffffffffff168152602001600282015481525050815260200190600101906102d0565b50505050905090565b6000604051905090565b600080fd5b600080fd5b6000819050919050565b61042481610411565b811461042f57600080fd5b50565b6000813590506104418161041b565b92915050565b60006020828403121561045d5761045c610407565b5b600061046b84828501610432565b91505092915050565b600081519050919050565b600082825260208201905092915050565b60005b838110156104ae578082015181840152602081019050610493565b60008484015250505050565b6000601f19601f8301169050919050565b60006104d682610474565b6104e0818561047f565b93506104f0818560208601610490565b6104f9816104ba565b840191505092915050565b600073ffffffffffffffffffffffffffffffffffffffff82169050919050565b600061052f82610504565b9050919050565b61053f81610524565b82525050565b61054e81610411565b82525050565b6000606082019050818103600083015261056e81866104cb565b905061057d6020830185610536565b61058a6040830184610545565b949350505050565b600080fd5b600080fd5b7f4e487b7100000000000000000000000000000000000000000000000000000000600052604160045260246000fd5b6105d4826104ba565b810181811067ffffffffffffffff821117156105f3576105f261059c565b5b80604052505050565b60006106066103fd565b905061061282826105cb565b919050565b600067ffffffffffffffff8211156106325761063161059c565b5b61063b826104ba565b9050602081019050919050565b82818337600083830152505050565b600061066a61066584610617565b6105fc565b90508281526020810184848401111561068657610685610597565b5b610691848285610648565b509392505050565b600082601f8301126106ae576106ad610592565b5b81356106be848260208601610657565b91505092915050565b6000602082840312156106dd576106dc610407565b5b600082013567ffffffffffffffff8111156106fb576106fa61040c565b5b61070784828501610699565b91505092915050565b600081519050919050565b600082825260208201905092915050565b6000819050602082019050919050565b600082825260208201905092915050565b600061075882610474565b610762818561073c565b9350610772818560208601610490565b61077b816104ba565b840191505092915050565b61078f81610524565b82525050565b61079e81610411565b82525050565b600060608301600083015184820360008601526107c1828261074d565b91505060208301516107d66020860182610786565b5060408301516107e96040860182610795565b508091505092915050565b600061080083836107a4565b905092915050565b6000602082019050919050565b600061082082610710565b61082a818561071b565b93508360208202850161083c8561072c565b8060005b85811015610878578484038952815161085985826107f4565b945061086483610808565b925060208a01995050600181019050610840565b50829750879550505050505092915050565b600060208201905081810360008301526108a48184610815565b905092915050565b7f4e487b7100000000000000000000000000000000000000000000000000000000600052602260045260246000fd5b600060028204905060018216806108f357607f821691505b602082108103610906576109056108ac565b5b50919050565b60008190508160005260206000209050919050565b60006020601f8301049050919050565b600082821b905092915050565b60006008830261096e7fffffffffffffffffffffffffffffffffffffffffffffffffffffffffffffffff82610931565b6109788683610931565b95508019841693508086168417925050509392505050565b6000819050919050565b60006109b56109b06109ab84610411565b610990565b610411565b9050919050565b6000819050919050565b6109cf8361099a565b6109e36109db826109bc565b84845461093e565b825550505050565b600090565b6109f86109eb565b610a038184846109c6565b505050565b5b81811015610a2757610a1c6000826109f0565b600181019050610a09565b5050565b601f821115610a6c57610a3d8161090c565b610a4684610921565b81016020851015610a55578190505b610a69610a6185610921565b830182610a08565b50505b505050565b600082821c905092915050565b6000610a8f60001984600802610a71565b1980831691505092915050565b6000610aa88383610a7e565b9150826002028217905092915050565b610ac182610474565b67ffffffffffffffff811115610ada57610ad961059c565b5b610ae482546108db565b610aef828285610a2b565b600060209050601f831160018114610b225760008415610b10578287015190505b610b1a8582610a9c565b865550610b82565b601f198416610b308661090c565b60005b82811015610b5857848901518255600182019150602085019450602081019050610b33565b86831015610b755784890151610b71601f891682610a7e565b8355505b6001600288020188555050505b505050505050565b60006040820190508181036000830152610ba481856104cb565b9050610bb36020830184610545565b939250505056fea2646970667358221220988420a6295806f9e42b64625e39cc061c9d8960f598553ffd9596010f37b3e264736f6c63430008180033",
  "linkReferences": {},
  "deployedLinkReferences": {}
}